:03000000020A39B8
:0C0A3900787FE4F6D8FD7581070208EB19
:0D0A2C005072657373206B6579203A2000CD
:0709AE001209F97FE87E0346
:1009B500E4FDFCD3ED9FEE6480F8EC64809850076D
:0709C5000DBD00010C80ECE8
:0109CC002208
:0E0A1D00E4FFFE0FBF00010EBE03F8BFE9F5B7
:010A2B0022A8
:100800007580EF1209B1E58020E008E58030E0FB5B
:100810007F4322E58020E108E58030E1FB7F38223C
:10082000E58020E208E58030E2FB7F3422E580208D
:10083000E308E58030E3FB7F30227580DF1209B1E9
:10084000E58020E008E58030E0FB7F4422E5802061
:10085000E108E58030E1FB7F3922E58020E208E510
:100860008030E2FB7F3522E58020E308E58030E33D
:10087000FB7F31227580BF1209B1E58020E008E5D9
:100880008030E0FB7F4522E58020E108E58030E113
:10089000FB7F4122E58020E208E58030E2FB7F36E5
:1008A00022E58020E308E58030E3FB7F322275807B
:1008B0007F1209B1E58020E008E58030E0FB7F464B
:1008C00022E58020E108E58030E1FB7F4222E580DF
:1008D00020E208E58030E2FB7F3722E58030E30349
:0B08E000020800E58030E3FB7F3322BC
:1009F9008F90C2A0D2A17F647E001209B5C2A10264
:020A090009B52D
:100A0B008F90D2A0D2A17F647E001209B5C2A10241
:020A1B0009B51B
:10098C007F381209F97F507EC31209B57F0C12090A
:10099C00AE7F061209AE7F011209F97F887E130221
:0209AC0009B58B
:1009E6001209CDFF600C120A0B740129F9E43AFAD8
:0309F60080EE226E
:1008EB0012098C7F801209F97BFF7A0A792C120985
:1008FB00E67FC01209F9120800AB07EB24D0B4084D
:10090B000050EE90091C75F003A4C58325F0C58338
:10091B007302093402093E02094802095202095CBA
:10092B0002096602097002097EAF03120A0B758079
:10093B0001803AAF03120A0B7580028030AF0312AD
:10094B000A0B7580048026AF03120A0B7580088092
:10095B001CAF03120A0B7580108012AF03120A0B27
:10096B007580208008AF03120A0B758040120A1D98
:10097B000208FCAF03120A0B758080120A1D0208D5
:01098B00FC6F
:1009CD00BB010689828A83E0225002E722BBFE0228
:0909DD00E32289828A83E493225B
:00000001FF
