:030000000208A74C
:0C08A700787FE4F6D8FD75811B0208EE96
:0C0946000A08BF86DBCFE6EDFD87FFEF5F
:10080000E4F518F519E4F516F517E4F514F515E413
:10081000F512F513E4F51AF51B75A00174082513FC
:1008200012093375A0027408251512093375A00446
:100830007408251712093375A008740825191209C0
:1008400033051BE51B7002051AC39432E51A648058
:10085000948040C50513E51370020512C3940AE5A0
:10086000126480948040AD0515E51570020514C32F
:10087000940AE5146480948040950517E51770028A
:100880000516C3940AE51664809480500302080A92
:100890000519E51970020518C3940AE518648094D7
:0608A00080500302080570
:0108A600222F
:04093300F8E6F5806D
:0E093700E4FFFE0FBF00010EEF64324E70F5BC
:01094500228F
:1008B300020800E493A3F8E493A34003F68001F253
:1008C30008DFF48029E493A3F85407240CC8C33346
:1008D300C4540F4420C8834004F456800146F6DF15
:1008E300E4800B0102040810204080900946E47E56
:1008F300019360BCA3FF543F30E509541FFEE4930A
:10090300A360010ECF54C025E060A840B8E493A3D0
:10091300FAE493A3F8E493A3C8C582C8CAC583CAFB
:10092300F0A3C8C582C8CAC583CADFE9DEE780BEB3
:0109520000A4
:00000001FF
