:030000000208D320
:0C08D300787FE4F6D8FD7581070208006C
:0708DF00C2A0D2A1C2A122B8
:0908C3001208CC1208B47580453E
:0708CC00D2A0D2A1C2A122BB
:0C08A8001208CC1208B475804E1208CC67
:0E08B400E4FFFE0FBF00010EBE75F8BF31F568
:0108C2002213
:100800007580381208DF1208B475800E1208DF12E6
:1008100008B47580011208DF1208B475800612084A
:10082000DF1208B47580831208DF1208B47580796E
:100830001208CC1208B47580441208CC1208B475A2
:1008400080561208CC1208B47580411208A8758031
:10085000431208C31208B47580C31208DF1208B42B
:100860007580541208C31208B47580431208CC1264
:1008700008B47580481208A875804F1208CC120879
:10088000B475804C1208CC1208B475804F1208CC95
:100890001208B47580471208CC1208B4758059123A
:0808A00008CC1208B4020800A4
:00000001FF
