:03000000020AD31E
:0C0AD300787FE4F6D8FD758117020A61F7
:100A7F005072657373206B6579203A2000BF86DB57
:0D0A8F00CFE6EDFD87FFEF777F39BF79716E
:070A4200120AAF7FE87E03FA
:100A4900E4FDFCD3ED9FEE6480F8EC6480985007D8
:070A59000DBD00010C80EC53
:010A60002273
:100AAF008F90C2A0D2A17F647E00120A49C2A10218
:020ABF000A49E2
:100AC1008F90D2A0D2A17F647E00120A49C2A102F6
:020AD1000A49D0
:100A20007F38120AAF7F507EC3120A497F0C120A28
:100A3000427F06120A427F01120AAF7F887E1302AC
:020A40000A4961
:100A9C00120A07FF600C120AC1740129F9E43AFA30
:030AAC0080EE22B7
:1008000078087C007D007BFF7A0A798C7E007F0A65
:100810001209E178127C007D007BFF7A0A79967ECE
:10082000007F061209E17580EF120A45E58020E09D
:1008300008E58030E0FBAF1422E58020E108E58088
:1008400030E1FBAF1022E58020E208E58030E2FBDA
:10085000AF0C22E58020E308E58030E3FBAF0822FF
:100860007580DF120A45E58020E008E58030E0FB76
:10087000AF1522E58020E108E58030E1FBAF1122D1
:10088000E58020E208E58030E2FBAF0D22E5802024
:10089000E308E58030E3FBAF09227580BF120A450B
:1008A000E58020E008E58030E0FBAF1622E58020FF
:1008B000E108E58030E1FBAF1222E58020E208E5A7
:1008C0008030E2FBAF0E22E58020E308E58030E3D4
:1008D000FBAF0A2275807F120A45E58020E008E51B
:1008E0008030E0FBAF1722E58020E108E58030E1B1
:1008F000FBAF1322E58020E208E58030E2FBAF0F7A
:1009000022E58030E303020826E58030E3FBAF0BED
:0109100022C4
:100A6100120A207F80120AAF7BFF7A0A797F120A6D
:0E0A71009C7FC0120AAF120800120AC180F367
:10091100E709F608DFFA8046E709F208DFFA803EC8
:1009210088828C83E709F0A3DFFA8032E309F608B5
:10093100DFFA8078E309F208DFFA807088828C831D
:10094100E309F0A3DFFA806489828A83E0A3F608D1
:10095100DFFA805889828A83E0A3F208DFFA804CAB
:1009610080D280FA80C680D4806980F28033801082
:1009710080A680EA809A80A880DA80E280CA8033EB
:1009810089828A83ECFAE493A3C8C582C8CCC58363
:10099100CCF0A3C8C582C8CCC583CCDFE9DEE78033
:1009A1000D89828A83E493A3F608DFF9ECFAA9F0B2
:1009B100EDFB2289828A83ECFAE0A3C8C582C8CC08
:1009C100C583CCF0A3C8C582C8CCC583CCDFEADE21
:1009D100E880DB89828A83E493A3F208DFF980CC83
:1009E10088F0EF60010E4E60C388F0ED2402B4047C
:1009F1000050B9F582EB2402B4040050AF23234523
:060A0100822390096173DD
:100A0700BB010689828A83E0225002E722BBFE02ED
:090A1700E32289828A83E4932220
:00000001FF
