:03000000020A5A97
:0C0A5A00787FE4F6D8FD75810902098F51
:0D0A4D005072657373206B6579203A2000AC
:0709F700120A297FE87E03CC
:1009FE00E4FDFCD3ED9FEE6480F8EC648098500724
:070A0E000DBD00010C80EC9E
:010A150022BE
:100A29008F90C2A0D2A17F647E001209FEC2A102EA
:020A390009FEB4
:100A3B008F90D2A0D2A17F647E001209FEC2A102C8
:020A4B0009FEA2
:1009D5007F38120A297F507EC31209FE7F0C120947
:1009E500F77F061209F77F01120A297F887E130215
:0209F50009FEF9
:100A16001208EBFF600C120A3B740129F9E43AFA5A
:030A260080EE223D
:100800007580EF1209FAE58020E008E58030E0FB12
:100810007F4322E58020E108E58030E1FB7F38223C
:10082000E58020E208E58030E2FB7F3422E580208D
:10083000E308E58030E3FB7F30227580DF1209FAA0
:10084000E58020E008E58030E0FB7F4422E5802061
:10085000E108E58030E1FB7F3922E58020E208E510
:100860008030E2FB7F3522E58020E308E58030E33D
:10087000FB7F31227580BF1209FAE58020E008E590
:100880008030E0FB7F4522E58020E108E58030E113
:10089000FB7F4122E58020E208E58030E2FB7F36E5
:1008A00022E58020E308E58030E3FB7F322275807B
:1008B0007F1209FAE58020E008E58030E0FB7F4602
:1008C00022E58020E108E58030E1FB7F4222E580DF
:1008D00020E208E58030E2FB7F3722E58030E30349
:0B08E000020800E58030E3FB7F3322BC
:10098F00E4F508F5091209D57F80120A297BFF7A51
:10099F000A794D120A167FC0120A29120800AB07F6
:1009AF000509E50970020508AE08FF7C007D0F12EE
:1009BF000904ED4C7009F508F5097FC0120A29AF3B
:0609CF0003120A3B80D573
:1008EB00BB010689828A83E0225002E722BBFE020B
:0908FB00E32289828A83E493223E
:10090400C2D5EC30E709B2D5E4C39DFDE49CFCEE0E
:1009140030E715B2D5E4C39FFFE49EFE12093AC343
:10092400E49DFDE49CFC800312093A30D507C3E43E
:060934009FFFE49EFE227D
:10093A00BC000BBE0029EF8DF084FFADF022E4CCA1
:10094A00F875F008EF2FFFEE33FEEC33FCEE9DEC6A
:10095A00984005FCEE9DFE0FD5F0E9E4CEFD22EDB0
:10096A00F8F5F0EE8420D21CFEADF075F008EF2FFA
:10097A00FFED33FD4007985006D5F0F222C398FDEB
:05098A000FD5F0EA2288
:00000001FF
