:03000000020A44AD
:0C0A4400787FE4F6D8FD758117020A23C4
:100A3400BF86DBCFE6EDFD87FFEF777F39BF7971A6
:040A07007FE87E0303
:100A0B00E4FDFCD3ED9FEE6480F8EC648098500716
:070A1B000DBD00010C80EC91
:010A220022B1
:1008000078087C007D007BFF7A0A79347E007F0ABD
:100810001209E178127C007D007BFF7A0A793E7E26
:10082000007F061209E17590EF120A07E59020E0BB
:1008300008E59030E0FBAF1422E59020E108E59058
:1008400030E1FBAF1022E59020E208E59030E2FBBA
:10085000AF0C22E59020E308E59030E3FBAF0822DF
:100860007590DF120A07E59020E008E59030E0FB84
:10087000AF1522E59020E108E59030E1FBAF1122B1
:10088000E59020E208E59030E2FBAF0D22E59020F4
:10089000E308E59030E3FBAF09227590BF120A0729
:1008A000E59020E008E59030E0FBAF1622E59020CF
:1008B000E108E59030E1FBAF1222E59020E208E587
:1008C0009030E2FBAF0E22E59020E308E59030E3A4
:1008D000FBAF0A2275907F120A07E59020E008E539
:1008E0009030E0FBAF1722E59020E108E59030E181
:1008F000FBAF1322E59020E208E59030E2FBAF0F5A
:1009000022E59030E303020826E59030E3FBAF0BCD
:0109100022C4
:100A230075A0021208008F807F307E75120A0B803A
:010A3300EFD3
:10091100E709F608DFFA8046E709F208DFFA803EC8
:1009210088828C83E709F0A3DFFA8032E309F608B5
:10093100DFFA8078E309F208DFFA807088828C831D
:10094100E309F0A3DFFA806489828A83E0A3F608D1
:10095100DFFA805889828A83E0A3F208DFFA804CAB
:1009610080D280FA80C680D4806980F28033801082
:1009710080A680EA809A80A880DA80E280CA8033EB
:1009810089828A83ECFAE493A3C8C582C8CCC58363
:10099100CCF0A3C8C582C8CCC583CCDFE9DEE78033
:1009A1000D89828A83E493A3F608DFF9ECFAA9F0B2
:1009B100EDFB2289828A83ECFAE0A3C8C582C8CC08
:1009C100C583CCF0A3C8C582C8CCC583CCDFEADE21
:1009D100E880DB89828A83E493A3F208DFF980CC83
:1009E10088F0EF60010E4E60C388F0ED2402B4047C
:1009F1000050B9F582EB2402B4040050AF23234523
:060A0100822390096173DD
:00000001FF
