:03000000020800F3
:0C080000787FE4F6D8FD75813A020847C5
:1009020057454C434F4D452059554B5449002020E3
:10091200202048455959592047414C4C4C4C4C20B9
:10092200202020002020437573746F6D204368617E
:10093200727320200020206F6E2031367832204CD6
:100942004344202020004142434445464748494A07
:100952004B4C4D4E4F5000313233343536373839E7
:02096200300063
:1009640020300800040E04150E040000040E0E0EC0
:100974001F0400000A1511110A04000E11111F1B97
:100984001B1B1F0E11101F1B1B1B1F000E151B0E04
:030994000E000052
:0609BD00D2A17F057E00BF
:1009C300D3EF9400EE64809480400F7DFADDFE7DCA
:0A09D300F8DDFEEF1F70E91E80E65C
:0109DD0022F7
:0E0A18007FD07E071209C37F01120A267F805D
:0A0A26008F90C2A01209BDC2A122E8
:0A0A44008F90D2A01209BDC2A122BA
:1009DE007F40120A26E4FBFA74082BF8E6FF120A8F
:1009EE00440BBB00010AEB64304A70EC7F80020AB4
:0109FE0026D2
:100998008B388A39893AAB38AA39A93A1209FF60E3
:1009A80013053AE53A7002053914F91209FFFF12E6
:0509B8000A4480E22268
:100A30007F38120A267F0C120A267F01120A267FAF
:040A400080020A2600
:10088C00120A301209DE7BFF7A0979021209987F6D
:10089C00C0120A267BFF7A097910120998120A18DD
:1008AC007BFF7A0979261209987FC0120A267BFFF2
:1008BC007A097937120998120A187BFF7A09794854
:1008CC001209987FC0120A267BFF7A0979591209FE
:1008DC00987FCA120A26E4FF120A447F01120A44C6
:1008EC007F02120A447F03120A447F04120A447FD7
:0608FC0005120A4480FE13
:10080C0002088CE493A3F8E493A34003F68001F26E
:10081C0008DFF48029E493A3F85407240CC8C333ED
:10082C00C4540F4420C8834004F456800146F6DFBC
:10083C00E4800B0102040810204080900964E47EDF
:10084C00019360BCA3FF543F30E509541FFEE493B1
:10085C00A360010ECF54C025E060A840B8E493A378
:10086C00FAE493A3F8E493A3C8C582C8CAC583CAA3
:10087C00F0A3C8C582C8CAC583CADFE9DEE780BE5B
:01099700005F
:1009FF00BB010689828A83E0225002E722BBFE02F6
:090A0F00E32289828A83E4932228
:00000001FF
