:030000000209A54D
:0C09A500787FE4F6D8FD75810702092C6C
:0D0998005072657373206B6579203A200062
:07090D001209767FE87E036A
:10091400E4FDFCD3ED9FEE6480F8EC64809850070E
:070924000DBD00010C80EC89
:01092B0022A9
:100976008F90C2A0D2A17F647E00120914C2A10288
:02098600091452
:100988008F90D2A0D2A17F647E00120914020914AC
:1008EB007F381209767F507EC31209147F0C1209D0
:1008FB000D7F0612090D7F011209767F887E130288
:02090B000914CD
:1009630012094AFF600C120988740129F9E43AFA62
:0309730080EE22F1
:100800007580EF120910E58020E008E58030E0FBFC
:100810007F4322E58020E108E58030E1FB7F38223C
:10082000E58020E208E58030E2FB7F3422E580208D
:10083000E308E58030E3FB7F30227580DF1209108A
:10084000E58020E008E58030E0FB7F4422E5802061
:10085000E108E58030E1FB7F3922E58020E208E510
:100860008030E2FB7F3522E58020E308E58030E33D
:10087000FB7F31227580BF120910E58020E008E57A
:100880008030E0FB7F4522E58020E108E58030E113
:10089000FB7F4122E58020E208E58030E2FB7F36E5
:1008A00022E58020E308E58030E3FB7F322275807B
:1008B0007F120910E58020E008E58030E0FB7F46EC
:1008C00022E58020E108E58030E1FB7F4222E580DF
:1008D00020E208E58030E2FB7F3722E58030E30349
:0B08E000020800E58030E3FB7F3322BC
:10092C001208EB7F801209767BFF7A0979981209FD
:0E093C00637FC012097612080012098880F34A
:10094A00BB010689828A83E0225002E722BBFE02AB
:09095A00E32289828A83E49322DE
:00000001FF
